:0300D6000108011D
:1000BB0012008FAF0805081200CE7FE87E031200F6
:0300CB00A680F01C
:1000A600EF4E6010007D027CC7DCFEDDFCEF1F70AA
:0400B600EF1E80ECCD
:0100BA002223
:10008F0053877F75985053890F438920758BFD7562
:07009F008DFDC2ABD28E22E1
:0800CE008F993099FDC29922BF
:03000000020003F8
:0C000300787FE4F6D8FD75810802004A01
:10000F000200BBE493A3F8E493A34003F68001F24C
:10001F0008DFF48029E493A3F85407240CC8C333F2
:10002F00C4540F4420C8834004F456800146F6DFC1
:10003F00E4800B01020408102040809000D6E47E7B
:10004F00019360BCA3FF543F30E509541FFEE493B6
:10005F00A360010ECF54C025E060A840B8E493A37D
:10006F00FAE493A3F8E493A3C8C582C8CAC583CAA8
:10007F00F0A3C8C582C8CAC583CADFE9DEE780BE60
:0100D9000026
:00000001FF
