:0C02540068656C6C6F00776F726C640062
:100142001202317BFF7A0279547D017F011201A8EC
:100152007FF47E0112021C1202317BFF7A02795A6D
:100162007D017F021201A87FF47E0112021C12029D
:030172003180D009
:10021C00EF4E6010007D027CC7DCFEDDFCEF1F7032
:04022C00EF1E80EC55
:0102300022AB
:06024500C2A58F80D2A7C4
:08024B007F027EEFDEFEDFFC06
:010253002288
:0A026C00C2A6120245C2A702024B0F
:1001CB00CFCDCFCECCCE1200427C007D0A120042A6
:0401DB00ED2430FFE0
:0A01DF00D2A6120245C2A702024B8D
:10020600AE07BE0104ED148006BE0209ED243F448C
:0602160080FF12026C22C1
:100231007F3812026C7F0C12026C7F0612026C7FF7
:040241000102026C48
:0A027600AC03120206AF040201DF20
:0601A8008B228A2389244A
:1001AE00120206E4FDAB22AA23A9248D82758300D8
:0C01BE00120003FF60061201DF0D80E953
:0101CA002212
:0C0175007F0AEA24FFFDE434FFFC7E005A
:080181008E1E8F1F8C208D21C2
:100189007F017E00E4FBEBC39521E5206480F874D0
:0E0199008098500AAC1EAD1F1200300B80E89B
:0101A7002235
:0401E9008A118B12DA
:1001ED00120206AA13EAD39400400D120175AC1148
:0801FD00AD121201CB1A80EDD6
:0102050022D6
:10009700120206C3EA64809480400B7F2B1201DFB3
:1000A7008A0D8B0E800E7F2D1201DFC3E49BF50EA8
:1000B700E49AF50DAA0CEAD39400400D120175AC31
:0900C7000DAD0E1201CB1A80ED03
:0100D000220D
:0400D1008A168B17E9
:1000D500120206AA18EAD3940040297F101201776C
:1000E500AC16AD17CFCDCFCECCCE120042EF540F0C
:1000F500FEC3940AEE5004243080022437FF120117
:04010500DF1A80D1AC
:0101090022D3
:04010A008A1B8B1CA5
:10010E00120206AA1DEAD394004028EA24FFFDE459
:10011E0034FFFC7F027E00120181AC1BAD1CCFCDE3
:10012E00CFCECCCE120042EF54012430FF1201DFAD
:03013E001A80D252
:01014100229B
:0300000002026099
:0C026000787FE4F6D8FD7581240201428D
:10000300BB010CE58229F582E5833AF583E02250B2
:1000130006E92582F8E622BBFE06E92582F8E222FC
:0D002300E58229F582E5833AF583E4932216
:10003000EF8DF0A4A8F0CF8CF0A428CE8DF0A42EE4
:02004000FE229E
:10004200BC000BBE0029EF8DF084FFADF022E4CCA2
:10005200F875F008EF2FFFEE33FEEC33FCEE9DEC6B
:10006200984005FCEE9DFE0FD5F0E9E4CEFD22EDB1
:10007200F8F5F0EE8420D21CFEADF075F008EF2FFB
:10008200FFED33FD4007985006D5F0F222C398FDEC
:050092000FD5F0EA2289
:00000001FF
