:0C011D000A083F065B4F666D7D077F6F90
:10008F00EE705BEF14B4080050549000A775F003A6
:10009F00A4C58325F0C583730200BF0200C302000D
:1000AF00C70200CB0200CF0200D70200DF0200E739
:1000BF00D2A4800ED2A48012D2A48016D2A4801A09
:1000CF00C2A4D2A3D2A28016C2A4D2A3C2A2800E6F
:1000DF00C2A4C2A3D2A28006C2A4C2A3C2A27408A1
:0C00EF002DF8E6F5807F057E000200FB86
:0D0110007D067C007F027E0012008F80F3D0
:1000FB00EF4E6010007D027CC7DCFEDDFCEF1F7055
:04010B00EF1E80EC77
:01010F0022CD
:03000000020003F8
:0C000300787FE4F6D8FD75811102004AF8
:10000F00020110E493A3F8E493A34003F68001F2F6
:10001F0008DFF48029E493A3F85407240CC8C333F2
:10002F00C4540F4420C8834004F456800146F6DFC1
:10003F00E4800B010204081020408090011DE47E33
:10004F00019360BCA3FF543F30E509541FFEE493B6
:10005F00A360010ECF54C025E060A840B8E493A37D
:10006F00FAE493A3F8E493A3C8C582C8CAC583CAA8
:10007F00F0A3C8C582C8CAC583CADFE9DEE780BE60
:0101290000D5
:00000001FF
