:050382004B45593A0053
:10028E0012033F7BFF7A0379827D017F011202B652
:10029E001200038F08E50860F7FB7A00750D027DEA
:0802AE00017F021202F780E853
:10000300E4F5097590FFC29320970C7F0AFE120353
:100013002A3097FD75090120960D7F0A7E00120391
:100023002A3096FD75090520950D7F0A7E0012037F
:100033002A3095FD75090920940D7F0A7E0012036D
:100043002A3094FD75090D7590FFC29220970D7F9C
:100053000A7E0012032A3097FD75090220960D7F50
:100063000A7E0012032A3096FD75090620950D7F3E
:100073000A7E0012032A3095FD75090A20940D7F2C
:100083000A7E0012032A3094FD75090E7590FFC293
:100093009120970D7F0A7E0012032A3097FD750980
:1000A3000320960D7F0A7E0012032A3096FD750900
:1000B3000720950D7F0A7E0012032A3095FD7509EE
:1000C3000B20940D7F0A7E0012032A3094FD7509DC
:1000D3000F7590FFC29020970D7F0A7E0012032AAE
:1000E3003097FD75090420960D7F0A7E0012032ABE
:1000F3003096FD75090820950D7F0A7E0012032AAC
:100103003095FD75090C20940D7F0A7E0012032A99
:080113003094FD750910AF09DD
:01011B0022C1
:10032A00EF4E6010007D027CC7DCFEDDFCEF1F7023
:04033A00EF1E80EC46
:01033E00229C
:06035300C2A58F80D2A7B5
:080359007F027EEFDEFEDFFCF7
:010361002279
:0A036E00C2A6120353C2A7020359EE
:1002D900CFCDCFCECCCE12015B7C007D0A12015B63
:0402E900ED2430FFD1
:0A02ED00D2A6120353C2A702035960
:10031400AE07BE0104ED148006BE0209ED243F447D
:0603240080FF12036E22AF
:10033F007F3812036E7F0C12036E7F0612036E7FDF
:04034F000102036E36
:0A037800AC03120314AF040202EDFF
:0602B6008B098A0A890B86
:1002BC00120314E4FDAB09AA0AA90B8D8275830005
:0C02CC0012011CFF60061202ED0D80E91B
:0102D8002203
:0C025B007F0AEA24FFFDE434FFFC7E0073
:080267008E0E8F0F8C108D111B
:10026F007F017E00E4FBEBC39511E5106480F87409
:0E027F008098500AAC0EAD0F1201490B80E8BA
:01028D00224E
:0402F7008A0B8B0CD7
:1002FB00120314AA0DEAD39400400D12025BAC0B4F
:08030B00AD0C1202D91A80EDBD
:0103130022C7
:1001B000120314C3EA64809480400B7F2B1202ED7B
:1001C0008A178B18800E7F2D1202EDC3E49BF51861
:1001D000E49AF517AA16EAD39400400D12025BAC1C
:0901E00017AD181202D91A80EDC6
:0101E90022F3
:0401EA008A1B8B1CC5
:1001EE00120314AA1DEAD3940040297F1012025D57
:1001FE00AC1BAD1CCFCDCFCECCCE12015BEF540FCE
:10020E00FEC3940AEE5004243080022437FF1202FB
:04021E00ED1A80D184
:0102220022B9
:040223008A208B2181
:10022700120314AA22EAD394004028EA24FFFDE42B
:1002370034FFFC7F027E00120267AC20AD21CFCDD8
:10024700CFCECCCE12015BEF54012430FF1202ED6A
:030257001A80D238
:01025A002281
:0300000002036296
:0C036200787FE4F6D8FD75812202028E3F
:10011C00BB010CE58229F582E5833AF583E0225098
:10012C0006E92582F8E622BBFE06E92582F8E222E2
:0D013C00E58229F582E5833AF583E49322FC
:10014900EF8DF0A4A8F0CF8CF0A428CE8DF0A42ECA
:02015900FE2284
:10015B00BC000BBE0029EF8DF084FFADF022E4CC88
:10016B00F875F008EF2FFFEE33FEEC33FCEE9DEC51
:10017B00984005FCEE9DFE0FD5F0E9E4CEFD22ED97
:10018B00F8F5F0EE8420D21CFEADF075F008EF2FE1
:10019B00FFED33FD4007985006D5F0F222C398FDD2
:0501AB000FD5F0EA226F
:00000001FF
