:0600030054696D653A002E
:1000D80012035E12038B7BFF7A0079037D017F0197
:1000E800120300AE28AF297C0E7D101200A28E08E4
:1000F8008F09AE28AF297C007D3C1200A2AA06AB6E
:1001080007AE08AF097C007D3C12003BC3EB9FF5AE
:100118000BEA9EF50AAE28AF291200A28C0C8D0DB1
:10012800751202AB09AA087D017F021203417B3ACE
:100138007D037F021203B8751202AB0BAA0A7D0475
:100148007F021203417B3A7D067F021203B87512C3
:0E01580002AB0DAA0C7D077F021203418085C9
:0803C200022A000002280000DD
:10035E005389F0438901758A66758CFCC28DD28CE7
:07036E00C2B9D2AFD2A922EF
:03000B000202D01E
:1002D000C0E0C0D0758A66758CFC052BE52B7002DA
:1002E000052AC394E8E52A64809483400E0529E535
:1002F0002970020528752A00752B00D0D0D0E03275
:06039F00C2A58F80D2A769
:0803A5007F027EEFDEFEDFFCAB
:0103AD00222D
:0A03AE00C2A612039FC2A70203A516
:10032300CFCDCFCECCCE12004D7C007D0A12004D36
:04033300ED2430FF86
:0A033700D2A612039FC2A70203A57D
:10037500AE07BE0104ED148006BE0209ED243F441C
:0603850080FF1203AE220E
:10038B007F381203AE7F0C1203AE7F061203AE7FD3
:04039B00010203AEAA
:0A03B800AC03120375AF0402033713
:060300008B0E8A0F89102C
:10030600120375E4FDAB0EAA0FA9108D827583004A
:0C03160012000EFF60061203370D80E994
:0103220022B8
:0C029D007F0AEA24FFFDE434FFFC7E0031
:0802A9008E138F148C158D16C5
:1002B1007F017E00E4FBEBC39516E5156480F874BD
:0E02C1008098500AAC13AD1412003B0B80E87D
:0102CF00220C
:040341008A108B1182
:10034500120375AA12EAD39400400D12029DAC1057
:08035500AD111203231A80ED23
:01035D00227D
:1001F200120375C3EA64809480400B7F2B1203378D
:100202008A1C8B1D800E7F2D120337C3E49BF51DC4
:10021200E49AF51CAA1BEAD39400400D12029DAC8D
:090222001CAD1D1203231A80ED2E
:01022B0022B0
:04022C008A208B2178
:10023000120375AA22EAD3940040297F1012029F6C
:10024000AC20AD21CFCDCFCECCCE12004DEF540F90
:10025000FEC3940AEE5004243080022437FF1203B8
:04026000371A80D1F8
:010264002277
:040265008A258B2635
:10026900120375AA27EAD394004028EA24FFFDE483
:1002790034FFFC7F027E001202A9AC25AD26CFCD4A
:10028900CFCECCCE12004DEF54012430FF120337EC
:030299001A80D2F6
:01029C00223F
:0300000002016694
:0C016600787FE4F6D8FD75812B0201AD16
:10000E00BB010CE58229F582E5833AF583E02250A7
:10001E0006E92582F8E622BBFE06E92582F8E222F1
:0D002E00E58229F582E5833AF583E493220B
:10003B00EF8DF0A4A8F0CF8CF0A428CE8DF0A42ED9
:02004B00FE2293
:10004D00BC000BBE0029EF8DF084FFADF022E4CC97
:10005D00F875F008EF2FFFEE33FEEC33FCEE9DEC60
:10006D00984005FCEE9DFE0FD5F0E9E4CEFD22EDA6
:10007D00F8F5F0EE8420D21CFEADF075F008EF2FF0
:10008D00FFED33FD4007985006D5F0F222C398FDE1
:05009D000FD5F0EA227E
:1000A200C2D5EC30E709B2D5E4C39DFDE49CFCEE79
:1000B20030E715B2D5E4C39FFFE49EFE12004DC3A4
:1000C200E49DFDE49CFC800312004D30D507C3E49F
:0600D2009FFFE49EFE22E8
:100172000200D8E493A3F8E493A34003F68001F2CB
:1001820008DFF48029E493A3F85407240CC8C3338E
:10019200C4540F4420C8834004F456800146F6DF5D
:1001A200E4800B01020408102040809003C2E47E28
:1001B200019360BCA3FF543F30E509541FFEE49352
:1001C200A360010ECF54C025E060A840B8E493A319
:1001D200FAE493A3F8E493A3C8C582C8CAC583CA44
:1001E200F0A3C8C582C8CAC583CADFE9DEE780BEFC
:0103CA000032
:00000001FF
