:050003001200C480FEA4
:0400DB000208000017
:1000C4005389F0438901758A66758CFCC28DD28C84
:0700D400C2B9D2AFD2A9228C
:03000B0002009A56
:10009A00C0E0C0D0758A66758CFC0509E509700256
:1000AA000508C394E8E508648094834008B2A07503
:0A00BA000800750900D0D0D0E03234
:0300000002000EED
:0C000E00787FE4F6D8FD758109020055EA
:10001A00020003E493A3F8E493A34003F68001F2F9
:10002A0008DFF48029E493A3F85407240CC8C333E7
:10003A00C4540F4420C8834004F456800146F6DFB6
:10004A00E4800B01020408102040809000DBE47E6B
:10005A00019360BCA3FF543F30E509541FFEE493AB
:10006A00A360010ECF54C025E060A840B8E493A372
:10007A00FAE493A3F8E493A3C8C582C8CAC583CA9D
:10008A00F0A3C8C582C8CAC583CADFE9DEE780BE55
:0100DF000020
:00000001FF
